{
  "abi": [
    {
      "inputs": [
        {
          "internalType": "address",
          "name": "_usdc",
          "type": "address"
        }
      ],
      "stateMutability": "nonpayable",
      "type": "constructor"
    },
    {
      "anonymous": false,
      "inputs": [
        {
          "indexed": true,
          "internalType": "address",
          "name": "owner",
          "type": "address"
        },
        {
          "indexed": true,
          "internalType": "address",
          "name": "spender",
          "type": "address"
        },
        {
          "indexed": false,
          "internalType": "uint256",
          "name": "value",
          "type": "uint256"
        }
      ],
      "name": "Approval",
      "type": "event"
    },
    {
      "anonymous": false,
      "inputs": [
        {
          "indexed": true,
          "internalType": "address",
          "name": "from",
          "type": "address"
        },
        {
          "indexed": true,
          "internalType": "address",
          "name": "to",
          "type": "address"
        },
        {
          "indexed": false,
          "internalType": "uint256",
          "name": "value",
          "type": "uint256"
        }
      ],
      "name": "Transfer",
      "type": "event"
    },
    {
      "inputs": [
        {
          "internalType": "address",
          "name": "owner",
          "type": "address"
        },
        {
          "internalType": "address",
          "name": "spender",
          "type": "address"
        }
      ],
      "name": "allowance",
      "outputs": [
        {
          "internalType": "uint256",
          "name": "",
          "type": "uint256"
        }
      ],
      "stateMutability": "view",
      "type": "function"
    },
    {
      "inputs": [
        {
          "internalType": "address",
          "name": "spender",
          "type": "address"
        },
        {
          "internalType": "uint256",
          "name": "amount",
          "type": "uint256"
        }
      ],
      "name": "approve",
      "outputs": [
        {
          "internalType": "bool",
          "name": "",
          "type": "bool"
        }
      ],
      "stateMutability": "nonpayable",
      "type": "function"
    },
    {
      "inputs": [
        {
          "internalType": "address",
          "name": "",
          "type": "address"
        }
      ],
      "name": "assures",
      "outputs": [
        {
          "internalType": "uint256",
          "name": "",
          "type": "uint256"
        }
      ],
      "stateMutability": "view",
      "type": "function"
    },
    {
      "inputs": [
        {
          "internalType": "address",
          "name": "account",
          "type": "address"
        }
      ],
      "name": "balanceOf",
      "outputs": [
        {
          "internalType": "uint256",
          "name": "",
          "type": "uint256"
        }
      ],
      "stateMutability": "view",
      "type": "function"
    },
    {
      "inputs": [
        {
          "internalType": "address",
          "name": "tokenAddress",
          "type": "address"
        },
        {
          "internalType": "uint256",
          "name": "amount",
          "type": "uint256"
        }
      ],
      "name": "borrow",
      "outputs": [],
      "stateMutability": "nonpayable",
      "type": "function"
    },
    {
      "inputs": [
        {
          "internalType": "address",
          "name": "",
          "type": "address"
        },
        {
          "internalType": "address",
          "name": "",
          "type": "address"
        }
      ],
      "name": "debts",
      "outputs": [
        {
          "internalType": "uint256",
          "name": "",
          "type": "uint256"
        }
      ],
      "stateMutability": "view",
      "type": "function"
    },
    {
      "inputs": [],
      "name": "decimals",
      "outputs": [
        {
          "internalType": "uint8",
          "name": "",
          "type": "uint8"
        }
      ],
      "stateMutability": "view",
      "type": "function"
    },
    {
      "inputs": [
        {
          "internalType": "address",
          "name": "spender",
          "type": "address"
        },
        {
          "internalType": "uint256",
          "name": "subtractedValue",
          "type": "uint256"
        }
      ],
      "name": "decreaseAllowance",
      "outputs": [
        {
          "internalType": "bool",
          "name": "",
          "type": "bool"
        }
      ],
      "stateMutability": "nonpayable",
      "type": "function"
    },
    {
      "inputs": [
        {
          "internalType": "address",
          "name": "tokenAddress",
          "type": "address"
        },
        {
          "internalType": "uint256",
          "name": "amount",
          "type": "uint256"
        }
      ],
      "name": "deposit",
      "outputs": [],
      "stateMutability": "payable",
      "type": "function"
    },
    {
      "inputs": [],
      "name": "deposits",
      "outputs": [
        {
          "internalType": "uint256",
          "name": "",
          "type": "uint256"
        }
      ],
      "stateMutability": "view",
      "type": "function"
    },
    {
      "inputs": [],
      "name": "eth",
      "outputs": [
        {
          "internalType": "address",
          "name": "",
          "type": "address"
        }
      ],
      "stateMutability": "view",
      "type": "function"
    },
    {
      "inputs": [
        {
          "internalType": "address",
          "name": "spender",
          "type": "address"
        },
        {
          "internalType": "uint256",
          "name": "addedValue",
          "type": "uint256"
        }
      ],
      "name": "increaseAllowance",
      "outputs": [
        {
          "internalType": "bool",
          "name": "",
          "type": "bool"
        }
      ],
      "stateMutability": "nonpayable",
      "type": "function"
    },
    {
      "inputs": [],
      "name": "interests",
      "outputs": [
        {
          "internalType": "uint256",
          "name": "",
          "type": "uint256"
        }
      ],
      "stateMutability": "view",
      "type": "function"
    },
    {
      "inputs": [
        {
          "internalType": "address",
          "name": "",
          "type": "address"
        },
        {
          "internalType": "address",
          "name": "",
          "type": "address"
        }
      ],
      "name": "lends",
      "outputs": [
        {
          "internalType": "uint256",
          "name": "",
          "type": "uint256"
        }
      ],
      "stateMutability": "view",
      "type": "function"
    },
    {
      "inputs": [
        {
          "internalType": "address",
          "name": "user",
          "type": "address"
        },
        {
          "internalType": "address",
          "name": "tokenAddress",
          "type": "address"
        },
        {
          "internalType": "uint256",
          "name": "amount",
          "type": "uint256"
        }
      ],
      "name": "liquidate",
      "outputs": [],
      "stateMutability": "nonpayable",
      "type": "function"
    },
    {
      "inputs": [
        {
          "internalType": "address",
          "name": "",
          "type": "address"
        },
        {
          "internalType": "address",
          "name": "",
          "type": "address"
        }
      ],
      "name": "money",
      "outputs": [
        {
          "internalType": "uint256",
          "name": "",
          "type": "uint256"
        }
      ],
      "stateMutability": "view",
      "type": "function"
    },
    {
      "inputs": [],
      "name": "name",
      "outputs": [
        {
          "internalType": "string",
          "name": "",
          "type": "string"
        }
      ],
      "stateMutability": "view",
      "type": "function"
    },
    {
      "inputs": [],
      "name": "oracle",
      "outputs": [
        {
          "internalType": "contract Oracles",
          "name": "",
          "type": "address"
        }
      ],
      "stateMutability": "view",
      "type": "function"
    },
    {
      "inputs": [
        {
          "internalType": "address",
          "name": "token",
          "type": "address"
        },
        {
          "internalType": "uint256",
          "name": "value",
          "type": "uint256"
        }
      ],
      "name": "oracle_set",
      "outputs": [],
      "stateMutability": "nonpayable",
      "type": "function"
    },
    {
      "inputs": [],
      "name": "owner",
      "outputs": [
        {
          "internalType": "address",
          "name": "",
          "type": "address"
        }
      ],
      "stateMutability": "view",
      "type": "function"
    },
    {
      "inputs": [
        {
          "internalType": "address",
          "name": "",
          "type": "address"
        }
      ],
      "name": "principles",
      "outputs": [
        {
          "internalType": "uint256",
          "name": "",
          "type": "uint256"
        }
      ],
      "stateMutability": "view",
      "type": "function"
    },
    {
      "inputs": [
        {
          "internalType": "address",
          "name": "tokenAddress",
          "type": "address"
        },
        {
          "internalType": "uint256",
          "name": "amount",
          "type": "uint256"
        }
      ],
      "name": "repay",
      "outputs": [],
      "stateMutability": "nonpayable",
      "type": "function"
    },
    {
      "inputs": [],
      "name": "symbol",
      "outputs": [
        {
          "internalType": "string",
          "name": "",
          "type": "string"
        }
      ],
      "stateMutability": "view",
      "type": "function"
    },
    {
      "inputs": [
        {
          "internalType": "address",
          "name": "",
          "type": "address"
        }
      ],
      "name": "times",
      "outputs": [
        {
          "internalType": "uint256",
          "name": "",
          "type": "uint256"
        }
      ],
      "stateMutability": "view",
      "type": "function"
    },
    {
      "inputs": [],
      "name": "totalSupply",
      "outputs": [
        {
          "internalType": "uint256",
          "name": "",
          "type": "uint256"
        }
      ],
      "stateMutability": "view",
      "type": "function"
    },
    {
      "inputs": [
        {
          "internalType": "address",
          "name": "to",
          "type": "address"
        },
        {
          "internalType": "uint256",
          "name": "amount",
          "type": "uint256"
        }
      ],
      "name": "transfer",
      "outputs": [
        {
          "internalType": "bool",
          "name": "",
          "type": "bool"
        }
      ],
      "stateMutability": "nonpayable",
      "type": "function"
    },
    {
      "inputs": [
        {
          "internalType": "address",
          "name": "from",
          "type": "address"
        },
        {
          "internalType": "address",
          "name": "to",
          "type": "address"
        },
        {
          "internalType": "uint256",
          "name": "amount",
          "type": "uint256"
        }
      ],
      "name": "transferFrom",
      "outputs": [
        {
          "internalType": "bool",
          "name": "",
          "type": "bool"
        }
      ],
      "stateMutability": "nonpayable",
      "type": "function"
    },
    {
      "inputs": [],
      "name": "usdc",
      "outputs": [
        {
          "internalType": "address",
          "name": "",
          "type": "address"
        }
      ],
      "stateMutability": "view",
      "type": "function"
    },
    {
      "inputs": [
        {
          "internalType": "address",
          "name": "tokenAddress",
          "type": "address"
        },
        {
          "internalType": "uint256",
          "name": "amount",
          "type": "uint256"
        }
      ],
      "name": "withdraw",
      "outputs": [],
      "stateMutability": "nonpayable",
      "type": "function"
    }
  ],
  "bytecode": {
    "object": "0x6080604052604051620000129062000179565b604051809103906000f0801580156200002f573d6000803e3d6000fd5b50600580546001600160a01b0319166001600160a01b03929092169190911790553480156200005d57600080fd5b50604051620022f6380380620022f6833981016040819052620000809162000187565b604051806040016040528060048152602001635553444360e01b815250604051806040016040528060048152602001637573646360e01b8152508160039081620000cb91906200025e565b506004620000da82826200025e565b505060068054336001600160a01b031991821617909155600780549091166001600160a01b0384811691821790925542600e5560055460405162e4768b60e01b81526004810192909252662386f26fc100006024830152909116915062e4768b90604401600060405180830381600087803b1580156200015957600080fd5b505af11580156200016e573d6000803e3d6000fd5b50505050506200032a565b61021980620020dd83390190565b6000602082840312156200019a57600080fd5b81516001600160a01b0381168114620001b257600080fd5b9392505050565b634e487b7160e01b600052604160045260246000fd5b600181811c90821680620001e457607f821691505b6020821081036200020557634e487b7160e01b600052602260045260246000fd5b50919050565b601f8211156200025957600081815260208120601f850160051c81016020861015620002345750805b601f850160051c820191505b81811015620002555782815560010162000240565b5050505b505050565b81516001600160401b038111156200027a576200027a620001b9565b62000292816200028b8454620001cf565b846200020b565b602080601f831160018114620002ca5760008415620002b15750858301515b600019600386901b1c1916600185901b17855562000255565b600085815260208120601f198616915b82811015620002fb57888601518255948401946001909101908401620002da565b50858210156200031a5787850151600019600388901b60f8161c191681555b5050505050600190811b01905550565b611da3806200033a6000396000f3fe6080604052600436106101c25760003560e01c80634b8a3529116100f757806395d89b4111610095578063dd62ed3e11610064578063dd62ed3e14610540578063f3fef3a314610560578063f6c4af3914610580578063fbf5a75c146105b857600080fd5b806395d89b41146104be578063a457c2d7146104d3578063a9059cbb146104f3578063ce7992f91461051357600080fd5b80637dc0d1d0116100d15780637dc0d1d01461043e57806380562ec01461045e5780638c7c9e0c1461047e5780638da5cb5b1461049e57600080fd5b80634b8a3529146103bb578063566c9c4a146103db57806370a082311461040857600080fd5b806326c0130311610164578063395093511161013e57806339509351146103185780633e413bee1461033857806347e7ef24146103705780634ac1c33d1461038357600080fd5b806326c01303146102c6578063313ce567146102e6578063323a5e0b1461030257600080fd5b806314a3db2d116101a057806314a3db2d1461025957806318160ddd1461026f57806322867d781461028457806323b872dd146102a657600080fd5b8063052e6229146101c757806306fdde0314610207578063095ea7b314610229575b600080fd5b3480156101d357600080fd5b506101f46101e2366004611b20565b60116020526000908152604090205481565b6040519081526020015b60405180910390f35b34801561021357600080fd5b5061021c6105f0565b6040516101fe9190611b42565b34801561023557600080fd5b50610249610244366004611b90565b610682565b60405190151581526020016101fe565b34801561026557600080fd5b506101f460105481565b34801561027b57600080fd5b506002546101f4565b34801561029057600080fd5b506102a461029f366004611b90565b61069c565b005b3480156102b257600080fd5b506102496102c1366004611bba565b61089b565b3480156102d257600080fd5b506102a46102e1366004611bba565b6108bf565b3480156102f257600080fd5b50604051601281526020016101fe565b34801561030e57600080fd5b506101f4600b5481565b34801561032457600080fd5b50610249610333366004611b90565b610c58565b34801561034457600080fd5b50600754610358906001600160a01b031681565b6040516001600160a01b0390911681526020016101fe565b6102a461037e366004611b90565b610c7a565b34801561038f57600080fd5b506101f461039e366004611bf6565b600c60209081526000928352604080842090915290825290205481565b3480156103c757600080fd5b506102a46103d6366004611b90565b610e41565b3480156103e757600080fd5b506101f46103f6366004611b20565b60096020526000908152604090205481565b34801561041457600080fd5b506101f4610423366004611b20565b6001600160a01b031660009081526020819052604090205490565b34801561044a57600080fd5b50600554610358906001600160a01b031681565b34801561046a57600080fd5b506102a4610479366004611b90565b61108c565b34801561048a57600080fd5b50600854610358906001600160a01b031681565b3480156104aa57600080fd5b50600654610358906001600160a01b031681565b3480156104ca57600080fd5b5061021c61113a565b3480156104df57600080fd5b506102496104ee366004611b90565b611149565b3480156104ff57600080fd5b5061024961050e366004611b90565b6111c4565b34801561051f57600080fd5b506101f461052e366004611b20565b600f6020526000908152604090205481565b34801561054c57600080fd5b506101f461055b366004611bf6565b6111d2565b34801561056c57600080fd5b506102a461057b366004611b90565b6111fd565b34801561058c57600080fd5b506101f461059b366004611bf6565b600a60209081526000928352604080842090915290825290205481565b3480156105c457600080fd5b506101f46105d3366004611bf6565b600d60209081526000928352604080842090915290825290205481565b6060600380546105ff90611c29565b80601f016020809104026020016040519081016040528092919081815260200182805461062b90611c29565b80156106785780601f1061064d57610100808354040283529160200191610678565b820191906000526020600020905b81548152906001019060200180831161065b57829003601f168201915b5050505050905090565b6000336106908185856116d3565b60019150505b92915050565b6007546001600160a01b038381169116146106f05760405162461bcd60e51b815260206004820152600f60248201526e696e76616c6964206164647265737360881b60448201526064015b60405180910390fd5b6005546007546040516341976e0960e01b81526001600160a01b03918216600482015260009291909116906341976e0990602401602060405180830381865afa158015610741573d6000803e3d6000fd5b505050506040513d601f19601f820116820180604052508101906107659190611c63565b6007546040516370a0823160e01b815233600482015291925083916001600160a01b03909116906370a0823190602401602060405180830381865afa1580156107b2573d6000803e3d6000fd5b505050506040513d601f19601f820116820180604052508101906107d69190611c63565b10156107f45760405162461bcd60e51b81526004016106e790611c7c565b336000908152600f60205260409020805442918290559061081890859083906117f7565b6007546040516323b872dd60e01b8152336004820152306024820152604481018590526001600160a01b03909116906323b872dd906064015b6020604051808303816000875af1158015610870573d6000803e3d6000fd5b505050506040513d601f19601f820116820180604052508101906108949190611ca5565b5050505050565b6000336108a98582856118ec565b6108b4858585611960565b506001949350505050565b6001600160a01b0382163014806108e357506007546001600160a01b038381169116145b6108ff5760405162461bcd60e51b81526004016106e790611cc7565b6001600160a01b03831661091257600080fd5b336000908152600960205260408082205460055460085492516341976e0960e01b81526001600160a01b039384166004820152919216906341976e0990602401602060405180830381865afa15801561096f573d6000803e3d6000fd5b505050506040513d601f19601f820116820180604052508101906109939190611c63565b61099d9190611d06565b336000908152600c602090815260408083206001600160a01b038816845290915290205490915060046109d1836003611d06565b6109db9190611d25565b1115610a295760405162461bcd60e51b815260206004820152601a60248201527f6f766572206c69717569646174696f6e207468726573686f6c6400000000000060448201526064016106e7565b6005546040516341976e0960e01b81526001600160a01b03858116600483015260009285929116906341976e0990602401602060405180830381865afa158015610a77573d6000803e3d6000fd5b505050506040513d601f19601f82011682018060405250810190610a9b9190611c63565b610aa59190611d06565b336000908152600c60209081526040808320308452909152902054909150811115610b6857336000908152600c60209081526040808320600780546001600160a01b03908116865291909352818420939093559054905163a9059cbb60e01b81523060048201526024810184905291169063a9059cbb906044016020604051808303816000875af1158015610b3e573d6000803e3d6000fd5b505050506040513d601f19601f82011682018060405250810190610b629190611ca5565b50610c19565b336000908152600c602090815260408083206007546001600160a01b0316845290915281208054839290610b9d908490611d47565b909155505060075460405163a9059cbb60e01b8152306004820152602481018390526001600160a01b039091169063a9059cbb906044016020604051808303816000875af1158015610bf3573d6000803e3d6000fd5b505050506040513d601f19601f82011682018060405250810190610c179190611ca5565b505b336000908152600c602090815260408083206001600160a01b038816845290915281208054859290610c4c908490611d47565b90915550505050505050565b600033610690818585610c6b83836111d2565b610c759190611d5a565b6116d3565b6001600160a01b038216301480610c9e57506007546001600160a01b038381169116145b610cba5760405162461bcd60e51b81526004016106e790611cc7565b306001600160a01b03831603610cf4573360009081526009602052604081208054349290610ce9908490611d5a565b90915550610e3d9050565b6040516370a0823160e01b815233600482015281906001600160a01b038416906370a0823190602401602060405180830381865afa158015610d3a573d6000803e3d6000fd5b505050506040513d601f19601f82011682018060405250810190610d5e9190611c63565b1015610d7c5760405162461bcd60e51b81526004016106e790611c7c565b6040516323b872dd60e01b8152336004820152306024820152604481018290526001600160a01b038316906323b872dd906064016020604051808303816000875af1158015610dcf573d6000803e3d6000fd5b505050506040513d601f19601f82011682018060405250810190610df39190611ca5565b50336000908152600a6020908152604080832030845290915281208054839290610e1e908490611d5a565b9250508190555080600b6000828254610e379190611d5a565b90915550505b5050565b6007546001600160a01b03838116911614610e905760405162461bcd60e51b815260206004820152600f60248201526e696e76616c6964206164647265737360881b60448201526064016106e7565b6007546040516370a0823160e01b815233600482015282916001600160a01b0316906370a0823190602401602060405180830381865afa158015610ed8573d6000803e3d6000fd5b505050506040513d601f19601f82011682018060405250810190610efc9190611c63565b1015610f1a5760405162461bcd60e51b81526004016106e790611c7c565b6005546008546040516341976e0960e01b81526001600160a01b03918216600482015260009291909116906341976e0990602401602060405180830381865afa158015610f6b573d6000803e3d6000fd5b505050506040513d601f19601f82011682018060405250810190610f8f9190611c63565b90506000610f9d8284611d06565b610fa8906002611d06565b33600090815260096020526040902054909150811115610ffe5760405162461bcd60e51b815260206004820152601160248201527043616e277420626f72726f77207573646360781b60448201526064016106e7565b336000818152600c602090815260408083206001600160a01b038916845282528083205493835260119091528120805490919061103c908490611d5a565b9091555050336000818152600f60205260409081902054600e55600754905163a9059cbb60e01b81526004810192909252602482018590526001600160a01b03169063a9059cbb90604401610851565b6006546001600160a01b031633146110d25760405162461bcd60e51b81526020600482015260096024820152683737ba1037bbb732b960b91b60448201526064016106e7565b60055460405162e4768b60e01b81526001600160a01b038481166004830152602482018490529091169062e4768b90604401600060405180830381600087803b15801561111e57600080fd5b505af1158015611132573d6000803e3d6000fd5b505050505050565b6060600480546105ff90611c29565b6000338161115782866111d2565b9050838110156111b75760405162461bcd60e51b815260206004820152602560248201527f45524332303a2064656372656173656420616c6c6f77616e63652062656c6f77604482015264207a65726f60d81b60648201526084016106e7565b6108b482868684036116d3565b600033610690818585611960565b6001600160a01b03918216600090815260016020908152604080832093909416825291909152205490565b6001600160a01b03821630148061122157506007546001600160a01b038381169116145b61123d5760405162461bcd60e51b81526004016106e790611cc7565b60105460000361133e57336000908152600a602090815260408083206001600160a01b038616845290915290205481111561127757600080fd5b336000908152600a602090815260408083206001600160a01b0386168452909152812080548392906112aa908490611d47565b9250508190555080600b60008282546112c39190611d47565b909155505060405163a9059cbb60e01b8152336004820152602481018290526001600160a01b0383169063a9059cbb906044016020604051808303816000875af1158015611315573d6000803e3d6000fd5b505050506040513d601f19601f820116820180604052508101906113399190611ca5565b505050565b336000908152600a602090815260408083206001600160a01b038616845290915290205481111561136e57600080fd5b600b54336000908152600a602090815260408083206001600160a01b038716845290915290205461139f9190611d25565b6010546113ac9190611d06565b336000908152600a602090815260408083206001600160a01b0387168452909152812080549091906113df908490611d5a565b9091555050336000908152600a602090815260408083206001600160a01b038616845290915290205481101561156357600b54336000908152600a602090815260408083206001600160a01b03871684529091529020546114409190611d25565b60105461144d9190611d06565b6114579082611d5a565b336000908152600a602090815260408083206001600160a01b03871684529091528120805490919061148a908490611d47565b9091555050600b54336000818152600a602090815260408083206001600160a01b038816808552925290912054909263a9059cbb92916114ca9190611d25565b6010546114d79190611d06565b6114e19085611d5a565b6040516001600160e01b031960e085901b1681526001600160a01b03909216600483015260248201526044016020604051808303816000875af115801561152c573d6000803e3d6000fd5b505050506040513d601f19601f820116820180604052508101906115509190611ca5565b5080600b6000828254610ce99190611d47565b336000908152600f602052604090205461157f908390426117f7565b600b54336000908152600a602090815260408083206001600160a01b03871684529091529020546115b09190611d25565b6010546115bd9190611d06565b6115c79082611d5a565b336000908152600a602090815260408083206001600160a01b0387168452909152812080549091906115fa908490611d47565b9091555050600b54336000818152600a602090815260408083206001600160a01b038816808552925290912054909263a9059cbb929161163a9190611d25565b6010546116479190611d06565b6116519085611d5a565b6040516001600160e01b031960e085901b1681526001600160a01b03909216600483015260248201526044016020604051808303816000875af115801561169c573d6000803e3d6000fd5b505050506040513d601f19601f820116820180604052508101906116c09190611ca5565b5080600b6000828254610e379190611d47565b6001600160a01b0383166117355760405162461bcd60e51b8152602060048201526024808201527f45524332303a20617070726f76652066726f6d20746865207a65726f206164646044820152637265737360e01b60648201526084016106e7565b6001600160a01b0382166117965760405162461bcd60e51b815260206004820152602260248201527f45524332303a20617070726f766520746f20746865207a65726f206164647265604482015261737360f01b60648201526084016106e7565b6001600160a01b0383811660008181526001602090815260408083209487168084529482529182902085905590518481527f8c5be1e5ebec7d5bd14f71427d1e84f3dd0314c0f7b2291e5b200ac8c7c3b925910160405180910390a3505050565b6000620151806118078484611d47565b6118119190611d25565b905080156118e657336000908152600c602090815260408083206001600160a01b03881684529091529020546103e89061184d906103e9611d06565b6118579190611d25565b601060008282546118689190611d5a565b9091555050336000908152600c602090815260408083206001600160a01b03881684529091529020546103e8906118a1906103e9611d06565b6118ab9190611d25565b336000818152600c602090815260408083206001600160a01b038a16808552908352818420869055938352600d825280832093835292905220555b50505050565b60006118f884846111d2565b905060001981146118e657818110156119535760405162461bcd60e51b815260206004820152601d60248201527f45524332303a20696e73756666696369656e7420616c6c6f77616e636500000060448201526064016106e7565b6118e684848484036116d3565b6001600160a01b0383166119c45760405162461bcd60e51b815260206004820152602560248201527f45524332303a207472616e736665722066726f6d20746865207a65726f206164604482015264647265737360d81b60648201526084016106e7565b6001600160a01b038216611a265760405162461bcd60e51b815260206004820152602360248201527f45524332303a207472616e7366657220746f20746865207a65726f206164647260448201526265737360e81b60648201526084016106e7565b6001600160a01b03831660009081526020819052604090205481811015611a9e5760405162461bcd60e51b815260206004820152602660248201527f45524332303a207472616e7366657220616d6f756e7420657863656564732062604482015265616c616e636560d01b60648201526084016106e7565b6001600160a01b03848116600081815260208181526040808320878703905593871680835291849020805487019055925185815290927fddf252ad1be2c89b69c2b068fc378daa952ba7f163c4a11628f55a4df523b3ef910160405180910390a36118e6565b80356001600160a01b0381168114611b1b57600080fd5b919050565b600060208284031215611b3257600080fd5b611b3b82611b04565b9392505050565b600060208083528351808285015260005b81811015611b6f57858101830151858201604001528201611b53565b506000604082860101526040601f19601f8301168501019250505092915050565b60008060408385031215611ba357600080fd5b611bac83611b04565b946020939093013593505050565b600080600060608486031215611bcf57600080fd5b611bd884611b04565b9250611be660208501611b04565b9150604084013590509250925092565b60008060408385031215611c0957600080fd5b611c1283611b04565b9150611c2060208401611b04565b90509250929050565b600181811c90821680611c3d57607f821691505b602082108103611c5d57634e487b7160e01b600052602260045260246000fd5b50919050565b600060208284031215611c7557600080fd5b5051919050565b6020808252600f908201526e4578636565642062616c616e63657360881b604082015260600190565b600060208284031215611cb757600080fd5b81518015158114611b3b57600080fd5b6020808252600f908201526e696e76616c6964204164647265737360881b604082015260600190565b634e487b7160e01b600052601160045260246000fd5b6000816000190483118215151615611d2057611d20611cf0565b500290565b600082611d4257634e487b7160e01b600052601260045260246000fd5b500490565b8181038181111561069657610696611cf0565b8082018082111561069657610696611cf056fea264697066735822122050f1c9bd12c7a3936eece366456bef618c5045b283a7c2fe2fbccfe5333d2ad964736f6c63430008100033608060405234801561001057600080fd5b50600080546001600160a01b031916331790556101e7806100326000396000f3fe608060405234801561001057600080fd5b50600436106100405760003560e01c8062e4768b1461004557806341976e0914610071578063570ca73514610097575b600080fd5b61006f610053366004610165565b6001600160a01b03909116600090815260016020526040902055565b005b61008461007f36600461018f565b6100c2565b6040519081526020015b60405180910390f35b6000546100aa906001600160a01b031681565b6040516001600160a01b03909116815260200161008e565b6001600160a01b038116600090815260016020526040812054810361012d5760405162461bcd60e51b815260206004820152601860248201527f7468652070726963652063616e6e6f74206265207a65726f0000000000000000604482015260640160405180910390fd5b506001600160a01b031660009081526001602052604090205490565b80356001600160a01b038116811461016057600080fd5b919050565b6000806040838503121561017857600080fd5b61018183610149565b946020939093013593505050565b6000602082840312156101a157600080fd5b6101aa82610149565b939250505056fea2646970667358221220ae83bdf77d996f4e64b5310f3da345a18ac5960013e006f02ec4bc4cf51fec8b64736f6c63430008100033",
    "linkReferences": {}
  },
  "methodIdentifiers": {
    "allowance(address,address)": "dd62ed3e",
    "approve(address,uint256)": "095ea7b3",
    "assures(address)": "566c9c4a",
    "balanceOf(address)": "70a08231",
    "borrow(address,uint256)": "4b8a3529",
    "debts(address,address)": "4ac1c33d",
    "decimals()": "313ce567",
    "decreaseAllowance(address,uint256)": "a457c2d7",
    "deposit(address,uint256)": "47e7ef24",
    "deposits()": "323a5e0b",
    "eth()": "8c7c9e0c",
    "increaseAllowance(address,uint256)": "39509351",
    "interests()": "14a3db2d",
    "lends(address,address)": "f6c4af39",
    "liquidate(address,address,uint256)": "26c01303",
    "money(address,address)": "fbf5a75c",
    "name()": "06fdde03",
    "oracle()": "7dc0d1d0",
    "oracle_set(address,uint256)": "80562ec0",
    "owner()": "8da5cb5b",
    "principles(address)": "052e6229",
    "repay(address,uint256)": "22867d78",
    "symbol()": "95d89b41",
    "times(address)": "ce7992f9",
    "totalSupply()": "18160ddd",
    "transfer(address,uint256)": "a9059cbb",
    "transferFrom(address,address,uint256)": "23b872dd",
    "usdc()": "3e413bee",
    "withdraw(address,uint256)": "f3fef3a3"
  },
  "id": 14
}