{
  "abi": [
    {
      "inputs": [],
      "stateMutability": "nonpayable",
      "type": "constructor"
    },
    {
      "inputs": [
        {
          "internalType": "address",
          "name": "token",
          "type": "address"
        }
      ],
      "name": "getPrice",
      "outputs": [
        {
          "internalType": "uint256",
          "name": "",
          "type": "uint256"
        }
      ],
      "stateMutability": "view",
      "type": "function"
    },
    {
      "inputs": [],
      "name": "operator",
      "outputs": [
        {
          "internalType": "address",
          "name": "",
          "type": "address"
        }
      ],
      "stateMutability": "view",
      "type": "function"
    },
    {
      "inputs": [
        {
          "internalType": "address",
          "name": "token",
          "type": "address"
        },
        {
          "internalType": "uint256",
          "name": "price",
          "type": "uint256"
        }
      ],
      "name": "setPrice",
      "outputs": [],
      "stateMutability": "nonpayable",
      "type": "function"
    }
  ],
  "bytecode": {
    "object": "0x608060405234801561001057600080fd5b50600080546001600160a01b031916331790556101d9806100326000396000f3fe608060405234801561001057600080fd5b50600436106100405760003560e01c8062e4768b1461004557806341976e091461005a578063570ca73514610096575b600080fd5b610058610053366004610157565b6100c1565b005b610083610068366004610181565b6001600160a01b031660009081526001602052604090205490565b6040519081526020015b60405180910390f35b6000546100a9906001600160a01b031681565b6040516001600160a01b03909116815260200161008d565b6000546001600160a01b0316331461011f5760405162461bcd60e51b815260206004820152601f60248201527f6f6e6c79206f70657261746f722063616e207365742074686520707269636500604482015260640160405180910390fd5b6001600160a01b03909116600090815260016020526040902055565b80356001600160a01b038116811461015257600080fd5b919050565b6000806040838503121561016a57600080fd5b6101738361013b565b946020939093013593505050565b60006020828403121561019357600080fd5b61019c8261013b565b939250505056fea26469706673582212209c3367e52f639a8062c7ef1545024e5a33a82dcaaef833cd77a9a047638092a464736f6c63430008100033",
    "linkReferences": {}
  },
  "methodIdentifiers": {
    "getPrice(address)": "41976e09",
    "operator()": "570ca735",
    "setPrice(address,uint256)": "00e4768b"
  },
  "id": 15
}