{
  "abi": [
    {
      "inputs": [
        {
          "internalType": "address",
          "name": "_usdc",
          "type": "address"
        },
        {
          "internalType": "address",
          "name": "_oracle",
          "type": "address"
        }
      ],
      "stateMutability": "nonpayable",
      "type": "constructor"
    },
    {
      "inputs": [
        {
          "internalType": "address",
          "name": "",
          "type": "address"
        },
        {
          "internalType": "address",
          "name": "",
          "type": "address"
        }
      ],
      "name": "assures",
      "outputs": [
        {
          "internalType": "uint256",
          "name": "",
          "type": "uint256"
        }
      ],
      "stateMutability": "view",
      "type": "function"
    },
    {
      "inputs": [
        {
          "internalType": "address",
          "name": "tokenAddress",
          "type": "address"
        },
        {
          "internalType": "uint256",
          "name": "amount",
          "type": "uint256"
        }
      ],
      "name": "borrow",
      "outputs": [],
      "stateMutability": "payable",
      "type": "function"
    },
    {
      "inputs": [
        {
          "internalType": "address",
          "name": "",
          "type": "address"
        },
        {
          "internalType": "address",
          "name": "",
          "type": "address"
        }
      ],
      "name": "collateral",
      "outputs": [
        {
          "internalType": "uint256",
          "name": "",
          "type": "uint256"
        }
      ],
      "stateMutability": "view",
      "type": "function"
    },
    {
      "inputs": [
        {
          "internalType": "address",
          "name": "",
          "type": "address"
        },
        {
          "internalType": "address",
          "name": "",
          "type": "address"
        }
      ],
      "name": "debts",
      "outputs": [
        {
          "internalType": "uint256",
          "name": "",
          "type": "uint256"
        }
      ],
      "stateMutability": "view",
      "type": "function"
    },
    {
      "inputs": [
        {
          "internalType": "address",
          "name": "tokenAddress",
          "type": "address"
        },
        {
          "internalType": "uint256",
          "name": "amount",
          "type": "uint256"
        }
      ],
      "name": "deposit",
      "outputs": [],
      "stateMutability": "payable",
      "type": "function"
    },
    {
      "inputs": [
        {
          "internalType": "address",
          "name": "",
          "type": "address"
        }
      ],
      "name": "deposit_time",
      "outputs": [
        {
          "internalType": "uint256",
          "name": "",
          "type": "uint256"
        }
      ],
      "stateMutability": "view",
      "type": "function"
    },
    {
      "inputs": [
        {
          "internalType": "address",
          "name": "",
          "type": "address"
        },
        {
          "internalType": "address",
          "name": "",
          "type": "address"
        }
      ],
      "name": "lends",
      "outputs": [
        {
          "internalType": "uint256",
          "name": "",
          "type": "uint256"
        }
      ],
      "stateMutability": "view",
      "type": "function"
    },
    {
      "inputs": [
        {
          "internalType": "address",
          "name": "user",
          "type": "address"
        },
        {
          "internalType": "address",
          "name": "tokenAddress",
          "type": "address"
        },
        {
          "internalType": "uint256",
          "name": "amount",
          "type": "uint256"
        }
      ],
      "name": "liquidate",
      "outputs": [],
      "stateMutability": "nonpayable",
      "type": "function"
    },
    {
      "inputs": [],
      "name": "oracle",
      "outputs": [
        {
          "internalType": "contract Oracles",
          "name": "",
          "type": "address"
        }
      ],
      "stateMutability": "view",
      "type": "function"
    },
    {
      "inputs": [
        {
          "internalType": "address",
          "name": "tokenAddress",
          "type": "address"
        },
        {
          "internalType": "uint256",
          "name": "amount",
          "type": "uint256"
        }
      ],
      "name": "repay",
      "outputs": [],
      "stateMutability": "payable",
      "type": "function"
    },
    {
      "inputs": [
        {
          "internalType": "address",
          "name": "",
          "type": "address"
        }
      ],
      "name": "times",
      "outputs": [
        {
          "internalType": "uint256",
          "name": "",
          "type": "uint256"
        }
      ],
      "stateMutability": "view",
      "type": "function"
    },
    {
      "inputs": [
        {
          "internalType": "address",
          "name": "tokenAddress",
          "type": "address"
        },
        {
          "internalType": "uint256",
          "name": "amount",
          "type": "uint256"
        }
      ],
      "name": "withdraw",
      "outputs": [],
      "stateMutability": "nonpayable",
      "type": "function"
    }
  ],
  "bytecode": {
    "object": "0x6080604052600180546001600160a01b0319166244444417905534801561002557600080fd5b5060405161155f38038061155f83398101604081905261004491610091565b600280546001600160a01b039384166001600160a01b031991821617909155600080549290931691161790556100c4565b80516001600160a01b038116811461008c57600080fd5b919050565b600080604083850312156100a457600080fd5b6100ad83610075565b91506100bb60208401610075565b90509250929050565b61148c806100d36000396000f3fe6080604052600436106100a75760003560e01c80636ea7317d116100645780636ea7317d1461018a5780637dc0d1d0146101b7578063cc218ece146101ef578063ce7992f914610227578063f3fef3a314610254578063f6c4af391461027457600080fd5b806322867d78146100ac57806326c01303146100c157806347e7ef24146100e15780634ac1c33d146100f45780634b8a35291461013f5780635a13484d14610152575b600080fd5b6100bf6100ba366004611277565b6102ac565b005b3480156100cd57600080fd5b506100bf6100dc3660046112a1565b610518565b6100bf6100ef366004611277565b6108be565b34801561010057600080fd5b5061012c61010f3660046112dd565b600360209081526000928352604080842090915290825290205481565b6040519081526020015b60405180910390f35b6100bf61014d366004611277565b610af6565b34801561015e57600080fd5b5061012c61016d3660046112dd565b600560209081526000928352604080842090915290825290205481565b34801561019657600080fd5b5061012c6101a5366004611310565b60076020526000908152604090205481565b3480156101c357600080fd5b506000546101d7906001600160a01b031681565b6040516001600160a01b039091168152602001610136565b3480156101fb57600080fd5b5061012c61020a3660046112dd565b600660209081526000928352604080842090915290825290205481565b34801561023357600080fd5b5061012c610242366004611310565b60086020526000908152604090205481565b34801561026057600080fd5b506100bf61026f366004611277565b610de8565b34801561028057600080fd5b5061012c61028f3660046112dd565b600460209081526000928352604080842090915290825290205481565b6002546001600160a01b038381169116146102e25760405162461bcd60e51b81526004016102d990611332565b60405180910390fd5b33600081815260086020526040812054916102fe90858461108b565b9050828103610412576002546040516323b872dd60e01b81526001600160a01b03909116906323b872dd9061033b9033903090889060040161135b565b6020604051808303816000875af115801561035a573d6000803e3d6000fd5b505050506040513d601f19601f8201168201806040525081019061037e919061137f565b503360008181526003602090815260408083206001600160a01b03898116855290835281842084905584845260058352818420600154909116845290915280822054905181156108fc0292818181858888f193505050501580156103e6573d6000803e3d6000fd5b503360009081526005602090815260408083206001546001600160a01b03168452909152812055610512565b8281116104615760405162461bcd60e51b815260206004820152601f60248201527f63616e2774207265706179206f766572207468652072657061796d656e74730060448201526064016102d9565b6002546040516323b872dd60e01b81526001600160a01b03909116906323b872dd906104959033903090889060040161135b565b6020604051808303816000875af11580156104b4573d6000803e3d6000fd5b505050506040513d601f19601f820116820180604052508101906104d8919061137f565b503360009081526003602090815260408083206001600160a01b03881684529091528120805485929061050c9084906113b7565b90915550505b50505050565b6002546001600160a01b038381169116146105455760405162461bcd60e51b81526004016102d990611332565b6001600160a01b0383166105925760405162461bcd60e51b815260206004820152601460248201527375736572206973207a65726f206164647265737360601b60448201526064016102d9565b600080546001546040516341976e0960e01b81526001600160a01b0391821660048201529116906341976e0990602401602060405180830381865afa1580156105df573d6000803e3d6000fd5b505050506040513d601f19601f8201168201806040525081019061060391906113d0565b6001600160a01b03851660009081526008602052604081205491925061062a86868461108b565b6001600160a01b03808816600090815260056020908152604080832060015490941683529290522054909150600490670de0b6b3a76400009061066d90866113e9565b6106779190611408565b6106829060036113e9565b61068c9190611408565b8111156106d35760405162461bcd60e51b81526020600482015260156024820152741b1a5c5d5a59185d1a5bdb881d1a1c995cda1bdb19605a1b60448201526064016102d9565b8360026106e18360016113e9565b6106eb9190611408565b10156107395760405162461bcd60e51b815260206004820152601860248201527f657863656564206c69717569646174696f6e206c696d6974000000000000000060448201526064016102d9565b6001600160a01b0380871660009081526005602081815260408084206001549095168452939052918120549091606491610772916113e9565b61077c9190611408565b6001600160a01b038089166000908152600560209081526040808320600180549095168452909152812054929350916002916107b891906113e9565b6107c29190611408565b6107cc908361142a565b604051909150339082156108fc029083906000818181858888f193505050501580156107fc573d6000803e3d6000fd5b506001600160a01b038089166000908152600560209081526040808320600154909416835292905290812080548392906108379084906113b7565b90915550506002546040516323b872dd60e01b81526001600160a01b03909116906323b872dd90610870908b9030908b9060040161135b565b6020604051808303816000875af115801561088f573d6000803e3d6000fd5b505050506040513d601f19601f820116820180604052508101906108b3919061137f565b505050505050505050565b6001546001600160a01b03838116911614806108e757506002546001600160a01b038381169116145b6109035760405162461bcd60e51b81526004016102d990611332565b6001546001600160a01b039081169083160361098f573360009081526005602090815260408083206001600160a01b03861684529091528120805434929061094c90849061142a565b90915550503360009081526006602090815260408083206001600160a01b03861684529091528120805434929061098490849061142a565b90915550610af29050565b6040516370a0823160e01b815233600482015281906001600160a01b038416906370a0823190602401602060405180830381865afa1580156109d5573d6000803e3d6000fd5b505050506040513d601f19601f820116820180604052508101906109f991906113d0565b1015610a335760405162461bcd60e51b81526020600482015260096024820152686e6f20626c616e636560b81b60448201526064016102d9565b6040516323b872dd60e01b81526001600160a01b038316906323b872dd90610a639033903090869060040161135b565b6020604051808303816000875af1158015610a82573d6000803e3d6000fd5b505050506040513d601f19601f82011682018060405250810190610aa6919061137f565b503360009081526004602090815260408083206001600160a01b038616845290915281208054839290610ada90849061142a565b90915550503360009081526007602052604090204290555b5050565b6002546001600160a01b03838116911614610b235760405162461bcd60e51b81526004016102d990611332565b6040516370a0823160e01b815230600482015281906001600160a01b038416906370a0823190602401602060405180830381865afa158015610b69573d6000803e3d6000fd5b505050506040513d601f19601f82011682018060405250810190610b8d91906113d0565b1015610bc85760405162461bcd60e51b815260206004820152600a6024820152696e6f2062616c616e636560b01b60448201526064016102d9565b3360009081526006602090815260408083206001546001600160a01b03168452909152902054610bf757600080fd5b600080546001546040516341976e0960e01b81526001600160a01b0391821660048201529116906341976e0990602401602060405180830381865afa158015610c44573d6000803e3d6000fd5b505050506040513d601f19601f82011682018060405250810190610c6891906113d0565b3360009081526005602090815260408083206001546001600160a01b03168452909152902054909150670de0b6b3a764000090610ca590836113e9565b610caf9190611408565b610cba8360026113e9565b1115610cf55760405162461bcd60e51b815260206004820152600a60248201526922bc31b2b2b210262a2b60b11b60448201526064016102d9565b60405163a9059cbb60e01b8152336004820152602481018390526001600160a01b0384169063a9059cbb906044016020604051808303816000875af1158015610d42573d6000803e3d6000fd5b505050506040513d601f19601f82011682018060405250810190610d66919061137f565b503360009081526003602090815260408083206001600160a01b038716845290915281208054849290610d9a90849061142a565b9091555050336000908152600860209081526040808320429055600682528083206001546001600160a01b0316845290915281208054349290610dde9084906113b7565b9091555050505050565b6002546001600160a01b03838116911614610e155760405162461bcd60e51b81526004016102d990611332565b3360008181526007602052604081205491610e31908584611173565b9050610e3d83826113b7565b600003610f79573360009081526004602090815260408083206001600160a01b0388168452909152902054610ea25760405162461bcd60e51b815260206004820152600b60248201526a4e6f74206c656e6465727360a81b60448201526064016102d9565b3360009081526004602090815260408083206001600160a01b038816845290915281208054859290610ed59084906113b7565b909155505060025460405163a9059cbb60e01b8152336004820152602481018590526001600160a01b039091169063a9059cbb906044016020604051808303816000875af1158015610f2b573d6000803e3d6000fd5b505050506040513d601f19601f82011682018060405250810190610f4f919061137f565b503360009081526004602090815260408083206001600160a01b0388168452909152812055610512565b3360009081526004602090815260408083206001600160a01b0388168452909152902054610fd75760405162461bcd60e51b815260206004820152600b60248201526a4e6f74206c656e6465727360a81b60448201526064016102d9565b3360009081526004602090815260408083206001600160a01b03881684529091528120805485929061100a9084906113b7565b909155505060025460405163a9059cbb60e01b8152336004820152602481018590526001600160a01b039091169063a9059cbb906044016020604051808303816000875af1158015611060573d6000803e3d6000fd5b505050506040513d601f19601f82011682018060405250810190611084919061137f565b5050505050565b506001600160a01b0382166000908152600860205260408120549080620151806110b584426113b7565b6110bf9190611408565b905060005b81811015611144576001600160a01b038087166000908152600360209081526040808320938916835292905220546103e890611102906103e96113e9565b61110c9190611408565b6001600160a01b038088166000908152600360209081526040808320938a16835292905220558061113c8161143d565b9150506110c4565b5050506001600160a01b0392831660009081526003602090815260408083209490951682529290925250205490565b506001600160a01b03821660009081526007602052604081205490806201518061119d84426113b7565b6111a79190611408565b905060005b8181101561122c576001600160a01b038087166000908152600460209081526040808320938916835292905220546103e8906111ea906103e96113e9565b6111f49190611408565b6001600160a01b038088166000908152600460209081526040808320938a1683529290522055806112248161143d565b9150506111ac565b5050506001600160a01b0392831660009081526004602090815260408083209490951682529290925250205490565b80356001600160a01b038116811461127257600080fd5b919050565b6000806040838503121561128a57600080fd5b6112938361125b565b946020939093013593505050565b6000806000606084860312156112b657600080fd5b6112bf8461125b565b92506112cd6020850161125b565b9150604084013590509250925092565b600080604083850312156112f057600080fd5b6112f98361125b565b91506113076020840161125b565b90509250929050565b60006020828403121561132257600080fd5b61132b8261125b565b9392505050565b6020808252600f908201526e696e76616c6964204164647265737360881b604082015260600190565b6001600160a01b039384168152919092166020820152604081019190915260600190565b60006020828403121561139157600080fd5b8151801515811461132b57600080fd5b634e487b7160e01b600052601160045260246000fd5b818103818111156113ca576113ca6113a1565b92915050565b6000602082840312156113e257600080fd5b5051919050565b6000816000190483118215151615611403576114036113a1565b500290565b60008261142557634e487b7160e01b600052601260045260246000fd5b500490565b808201808211156113ca576113ca6113a1565b60006001820161144f5761144f6113a1565b506001019056fea2646970667358221220afd3b75705ebc248dec8f2aca6aa991edb51d8a70321f519b1c428c80ef45d4864736f6c63430008100033",
    "linkReferences": {}
  },
  "methodIdentifiers": {
    "assures(address,address)": "5a13484d",
    "borrow(address,uint256)": "4b8a3529",
    "collateral(address,address)": "cc218ece",
    "debts(address,address)": "4ac1c33d",
    "deposit(address,uint256)": "47e7ef24",
    "deposit_time(address)": "6ea7317d",
    "lends(address,address)": "f6c4af39",
    "liquidate(address,address,uint256)": "26c01303",
    "oracle()": "7dc0d1d0",
    "repay(address,uint256)": "22867d78",
    "times(address)": "ce7992f9",
    "withdraw(address,uint256)": "f3fef3a3"
  },
  "id": 14
}