{
  "abi": [
    {
      "inputs": [
        {
          "internalType": "contract IPriceOracle",
          "name": "_oracle",
          "type": "address"
        },
        {
          "internalType": "address",
          "name": "_usdc",
          "type": "address"
        }
      ],
      "stateMutability": "nonpayable",
      "type": "constructor"
    },
    {
      "inputs": [
        {
          "internalType": "address",
          "name": "_borrower",
          "type": "address"
        }
      ],
      "name": "accrueInterest",
      "outputs": [
        {
          "internalType": "uint256",
          "name": "",
          "type": "uint256"
        }
      ],
      "stateMutability": "nonpayable",
      "type": "function"
    },
    {
      "inputs": [
        {
          "internalType": "address",
          "name": "tokenAddress",
          "type": "address"
        },
        {
          "internalType": "uint256",
          "name": "amount",
          "type": "uint256"
        }
      ],
      "name": "borrow",
      "outputs": [],
      "stateMutability": "payable",
      "type": "function"
    },
    {
      "inputs": [
        {
          "internalType": "address",
          "name": "",
          "type": "address"
        }
      ],
      "name": "borrower",
      "outputs": [
        {
          "internalType": "uint256",
          "name": "collateral",
          "type": "uint256"
        },
        {
          "internalType": "uint256",
          "name": "debt",
          "type": "uint256"
        },
        {
          "internalType": "uint256",
          "name": "blockNum",
          "type": "uint256"
        }
      ],
      "stateMutability": "view",
      "type": "function"
    },
    {
      "inputs": [
        {
          "internalType": "uint256",
          "name": "",
          "type": "uint256"
        }
      ],
      "name": "borrower_index",
      "outputs": [
        {
          "internalType": "address",
          "name": "",
          "type": "address"
        }
      ],
      "stateMutability": "view",
      "type": "function"
    },
    {
      "inputs": [],
      "name": "calc_fee",
      "outputs": [],
      "stateMutability": "nonpayable",
      "type": "function"
    },
    {
      "inputs": [
        {
          "internalType": "uint256",
          "name": "principal",
          "type": "uint256"
        },
        {
          "internalType": "uint256",
          "name": "ratio",
          "type": "uint256"
        },
        {
          "internalType": "uint256",
          "name": "n",
          "type": "uint256"
        }
      ],
      "name": "compound",
      "outputs": [
        {
          "internalType": "uint256",
          "name": "",
          "type": "uint256"
        }
      ],
      "stateMutability": "pure",
      "type": "function"
    },
    {
      "inputs": [
        {
          "internalType": "address",
          "name": "tokenAddress",
          "type": "address"
        },
        {
          "internalType": "uint256",
          "name": "amount",
          "type": "uint256"
        }
      ],
      "name": "deposit",
      "outputs": [],
      "stateMutability": "payable",
      "type": "function"
    },
    {
      "inputs": [
        {
          "internalType": "address",
          "name": "",
          "type": "address"
        }
      ],
      "name": "depositor",
      "outputs": [
        {
          "internalType": "uint256",
          "name": "balance",
          "type": "uint256"
        },
        {
          "internalType": "uint256",
          "name": "profit",
          "type": "uint256"
        },
        {
          "internalType": "uint256",
          "name": "blockNum",
          "type": "uint256"
        }
      ],
      "stateMutability": "view",
      "type": "function"
    },
    {
      "inputs": [
        {
          "internalType": "uint256",
          "name": "",
          "type": "uint256"
        }
      ],
      "name": "depositor_index",
      "outputs": [
        {
          "internalType": "address",
          "name": "",
          "type": "address"
        }
      ],
      "stateMutability": "view",
      "type": "function"
    },
    {
      "inputs": [
        {
          "internalType": "address",
          "name": "usdc",
          "type": "address"
        }
      ],
      "name": "getAccruedSupplyAmount",
      "outputs": [
        {
          "internalType": "uint256",
          "name": "",
          "type": "uint256"
        }
      ],
      "stateMutability": "nonpayable",
      "type": "function"
    },
    {
      "inputs": [
        {
          "internalType": "address",
          "name": "usdc",
          "type": "address"
        },
        {
          "internalType": "address",
          "name": "user",
          "type": "address"
        }
      ],
      "name": "getAllAccruedSupplyAmount",
      "outputs": [
        {
          "internalType": "uint256",
          "name": "",
          "type": "uint256"
        }
      ],
      "stateMutability": "nonpayable",
      "type": "function"
    },
    {
      "inputs": [
        {
          "internalType": "address",
          "name": "token1",
          "type": "address"
        }
      ],
      "name": "initializeLendingProtocol",
      "outputs": [],
      "stateMutability": "payable",
      "type": "function"
    },
    {
      "inputs": [
        {
          "internalType": "address",
          "name": "user",
          "type": "address"
        },
        {
          "internalType": "address",
          "name": "tokenAddress",
          "type": "address"
        },
        {
          "internalType": "uint256",
          "name": "amount",
          "type": "uint256"
        }
      ],
      "name": "liquidate",
      "outputs": [],
      "stateMutability": "nonpayable",
      "type": "function"
    },
    {
      "inputs": [],
      "name": "oracle",
      "outputs": [
        {
          "internalType": "contract IPriceOracle",
          "name": "",
          "type": "address"
        }
      ],
      "stateMutability": "view",
      "type": "function"
    },
    {
      "inputs": [
        {
          "internalType": "int128",
          "name": "x",
          "type": "int128"
        },
        {
          "internalType": "uint256",
          "name": "n",
          "type": "uint256"
        }
      ],
      "name": "pow",
      "outputs": [
        {
          "internalType": "int128",
          "name": "r",
          "type": "int128"
        }
      ],
      "stateMutability": "pure",
      "type": "function"
    },
    {
      "inputs": [
        {
          "internalType": "address",
          "name": "tokenAddress",
          "type": "address"
        },
        {
          "internalType": "uint256",
          "name": "amount",
          "type": "uint256"
        }
      ],
      "name": "repay",
      "outputs": [],
      "stateMutability": "payable",
      "type": "function"
    },
    {
      "inputs": [
        {
          "internalType": "address",
          "name": "",
          "type": "address"
        }
      ],
      "name": "total_supply",
      "outputs": [
        {
          "internalType": "uint256",
          "name": "",
          "type": "uint256"
        }
      ],
      "stateMutability": "view",
      "type": "function"
    },
    {
      "inputs": [
        {
          "internalType": "address",
          "name": "usdc",
          "type": "address"
        }
      ],
      "name": "updateProfit",
      "outputs": [],
      "stateMutability": "nonpayable",
      "type": "function"
    },
    {
      "inputs": [
        {
          "internalType": "address",
          "name": "tokenAddress",
          "type": "address"
        },
        {
          "internalType": "uint256",
          "name": "amount",
          "type": "uint256"
        }
      ],
      "name": "withdraw",
      "outputs": [],
      "stateMutability": "nonpayable",
      "type": "function"
    }
  ],
  "bytecode": {
    "object": "0x6080604052600180546001600160a01b03191690553480156200002157600080fd5b5060405162001ac438038062001ac4833981016040819052620000449162000092565b600280546001600160a01b039283166001600160a01b03199182161790915560008054939092169216919091179055620000d1565b6001600160a01b03811681146200008f57600080fd5b50565b60008060408385031215620000a657600080fd5b8251620000b38162000079565b6020840151909250620000c68162000079565b809150509250929050565b6119e380620000e16000396000f3fe6080604052600436106101145760003560e01c806363a27ddf116100a0578063ae581bc211610064578063ae581bc21461030b578063bdf78ba61461033e578063f3c85eba1461037a578063f3fef3a31461039a578063ff8d20c3146103ba57600080fd5b806363a27ddf146102785780637dc0d1d01461029857806380f315c4146102b85780638f1e9779146102d85780639198e515146102eb57600080fd5b80633f32e169116100e75780633f32e169146101e2578063435c02981461021d57806347e7ef24146102325780634b8a35291461024557806353415e441461025857600080fd5b8063126f84851461011957806322867d781461015657806326c013031461016b578063387e971c1461018b575b600080fd5b34801561012557600080fd5b506101396101343660046116e2565b6103da565b6040516001600160a01b0390911681526020015b60405180910390f35b610169610164366004611717565b610404565b005b34801561017757600080fd5b50610169610186366004611741565b6104b1565b34801561019757600080fd5b506101c76101a636600461177d565b60066020526000908152604090208054600182015460029092015490919083565b6040805193845260208401929092529082015260600161014d565b3480156101ee57600080fd5b5061020f6101fd36600461177d565b60056020526000908152604090205481565b60405190815260200161014d565b34801561022957600080fd5b50610169610759565b610169610240366004611717565b6107c9565b610169610253366004611717565b610934565b34801561026457600080fd5b5061020f61027336600461177d565b610b91565b34801561028457600080fd5b506101396102933660046116e2565b610c74565b3480156102a457600080fd5b50600054610139906001600160a01b031681565b3480156102c457600080fd5b506101696102d336600461177d565b610c84565b6101696102e636600461177d565b610cf6565b3480156102f757600080fd5b5061020f61030636600461177d565b610d69565b34801561031757600080fd5b5061032b610326366004611798565b610f2b565b604051600f9190910b815260200161014d565b34801561034a57600080fd5b506101c761035936600461177d565b60086020526000908152604090208054600182015460029092015490919083565b34801561038657600080fd5b5061020f6103953660046117bc565b610f87565b3480156103a657600080fd5b506101696103b5366004611717565b610fc7565b3480156103c657600080fd5b5061020f6103d53660046117e8565b611337565b600981815481106103ea57600080fd5b6000918252602090912001546001600160a01b0316905081565b61040d33610d69565b506002546040516323b872dd60e01b81526001600160a01b03909116906323b872dd906104429033903090869060040161181b565b6020604051808303816000875af1158015610461573d6000803e3d6000fd5b505050506040513d601f19601f82011682018060405250810190610485919061183f565b5033600090815260086020526040812060010180548392906104a8908490611877565b90915550505050565b600080546001546040516341976e0960e01b81526001600160a01b0391821660048201529116906341976e0990602401602060405180830381865afa1580156104fe573d6000803e3d6000fd5b505050506040513d601f19601f82011682018060405250810190610522919061188a565b600080546002546040516341976e0960e01b81526001600160a01b03918216600482015293945091929116906341976e0990602401602060405180830381865afa158015610574573d6000803e3d6000fd5b505050506040513d601f19601f82011682018060405250810190610598919061188a565b6001600160a01b0386166000908152600860205260409020600101549091506105c29082906118a3565b6001600160a01b0386166000908152600860205260409020546004906105e890856118a3565b6105f39060036118a3565b6105fd91906118d8565b1061060757600080fd5b6001600160a01b03851660009081526008602052604090206001908101548491600491610633916118a3565b61063d91906118d8565b101561064857600080fd5b6002546040516323b872dd60e01b81526001600160a01b03909116906323b872dd9061067c9033903090889060040161181b565b6020604051808303816000875af115801561069b573d6000803e3d6000fd5b505050506040513d601f19601f820116820180604052508101906106bf919061183f565b506001600160a01b03851660009081526008602052604090206001810154905433916108fc916106ef90876118a3565b6106f991906118d8565b6040518115909202916000818181858888f19350505050158015610721573d6000803e3d6000fd5b506001600160a01b0385166000908152600860205260408120600101805485929061074d908490611877565b90915550505050505050565b60005b6009548110156107c65760006009828154811061077b5761077b6118ec565b6000918252602090912001546001600160a01b0316905061079b81610d69565b600360008282546107ac9190611902565b909155508291506107be905081611915565b91505061075c565b50565b6002546001600160a01b0390811690831603610905576002546107f4906001600160a01b0316610c84565b6002546040516323b872dd60e01b81526001600160a01b03909116906323b872dd906108289033903090869060040161181b565b6020604051808303816000875af1158015610847573d6000803e3d6000fd5b505050506040513d601f19601f8201168201806040525081019061086b919061183f565b50336000908152600660205260408120805483929061088b908490611902565b90915550506002546001600160a01b0316600090815260056020526040812080548392906108ba908490611902565b9091555050600780546001810182556000919091527fa66cc928b5edb82af9bd49922954155ab7b0942694bea4ce44661d9a8736c6880180546001600160a01b031916331790555050565b80341461091157600080fd5b33600090815260086020526040812080548392906104a8908490611902565b5050565b600080546001546040516341976e0960e01b81526001600160a01b0391821660048201529116906341976e0990602401602060405180830381865afa158015610981573d6000803e3d6000fd5b505050506040513d601f19601f820116820180604052508101906109a5919061188a565b600080546002546040516341976e0960e01b81526001600160a01b03918216600482015293945091929116906341976e0990602401602060405180830381865afa1580156109f7573d6000803e3d6000fd5b505050506040513d601f19601f82011682018060405250810190610a1b919061188a565b33600090815260086020526040902060010154909150610a3c908490611902565b610a4690826118a3565b33600090815260086020526040902054600290610a6390856118a3565b610a6d91906118d8565b1015610a995760405162461bcd60e51b8152602060048201526000602482015260440160405180910390fd5b60025460405163a9059cbb60e01b8152336004820152602481018590526001600160a01b039091169063a9059cbb906044016020604051808303816000875af1158015610aea573d6000803e3d6000fd5b505050506040513d601f19601f82011682018060405250810190610b0e919061183f565b503360009081526008602052604081206001018054859290610b31908490611902565b9091555050336000818152600860205260408120436002909101556009805460018101825591527f6e1540171b6c0c960b71a7020d9f60077f6af931a8bbf590da0223dacf75c7af0180546001600160a01b031916909117905550505050565b6000610b9b610759565b6040516370a0823160e01b81523060048201526001600160a01b038316906370a0823190602401602060405180830381865afa158015610bdf573d6000803e3d6000fd5b505050506040513d601f19601f82011682018060405250810190610c03919061188a565b33600090815260066020526040902054600454600354610c239190611877565b610c2d91906118a3565b610c3791906118d8565b33600090815260066020526040902060010154610c549190611902565b33600090815260066020526040902054610c6e9190611902565b92915050565b600781815481106103ea57600080fd5b60005b60075481101561093057600060078281548110610ca657610ca66118ec565b6000918252602090912001546001600160a01b03169050610cc78382611337565b6001600160a01b0390911660009081526006602052604090206001015580610cee81611915565b915050610c87565b6040516323b872dd60e01b81526001600160a01b038216906323b872dd90610d269033903090349060040161181b565b6020604051808303816000875af1158015610d45573d6000803e3d6000fd5b505050506040513d601f19601f82011682018060405250810190610930919061183f565b6001600160a01b0381166000908152600860205260408120600201548190610d919043611877565b90506000610da1611c20836118d8565b90506000610db1611c208461192e565b905060008115610e6c576001600160a01b038616600090815260086020526040812060010154610de99066038d7ea4c6800086610f87565b90506000610e008266038d7ea4c680006001610f87565b905083611c20610e108484611877565b610e1a91906118d8565b610e2491906118a3565b610e2e9083611902565b9250610e65604051806040016040528060138152602001723932b6b0b4b71034b9903737ba103d32b9379d60691b815250846113ea565b5050610ed3565b6001600160a01b038616600090815260086020526040902060010154610ea09066038d7ea4c68000610395611c20886118d8565b9050610ed36040518060400160405280600f81526020016e3932b6b0b4b71034b9903d32b9379d60891b815250826113ea565b6001600160a01b038616600090815260086020526040812060010154610ef99083611877565b6001600160a01b0390971660009081526008602052604090206001810192909255504360029091015550929392505050565b6000610f37600161142f565b90505b8115610c6e57610f4b60028361192e565b600103610f7057610f5c818461144d565b9050610f69600183611877565b9150610f3a565b610f7a838461144d565b9250610f696002836118d8565b6000610fbf610fb9610fb3610f9c600161142f565b610fae87670de0b6b3a7640000611484565b6114be565b84610f2b565b856114f1565b949350505050565b33600090815260066020526040902054151580610ff257503360009081526008602052604090205415155b610ffb57600080fd5b61100433610d69565b506002546001600160a01b039081169083160361112a57670de0b6b3a764000061102d83610b91565b61103791906118d8565b61104990670de0b6b3a76400006118a3565b336000908152600660205260409020549091506110669082611877565b3360009081526006602052604081208054909190611085908490611902565b909155505060025460405163a9059cbb60e01b8152336004820152602481018390526001600160a01b039091169063a9059cbb906044016020604051808303816000875af11580156110db573d6000803e3d6000fd5b505050506040513d601f19601f820116820180604052508101906110ff919061183f565b50336000908152600660205260408120805483929061111f908490611877565b909155506109309050565b33600090815260086020526040812060010154900361119057604051339082156108fc029083906000818181858888f19350505050158015611170573d6000803e3d6000fd5b50336000908152600860205260408120805483929061111f908490611877565b600080546001546040516341976e0960e01b81526001600160a01b0391821660048201529116906341976e0990602401602060405180830381865afa1580156111dd573d6000803e3d6000fd5b505050506040513d601f19601f82011682018060405250810190611201919061188a565b600080546002546040516341976e0960e01b81526001600160a01b03918216600482015293945091929116906341976e0990602401602060405180830381865afa158015611253573d6000803e3d6000fd5b505050506040513d601f19601f82011682018060405250810190611277919061188a565b336000908152600860205260409020600101549091506112989082906118a3565b336000908152600860205260409020546004906112b6908690611877565b6112c090856118a3565b6112cb9060036118a3565b6112d591906118d8565b116112df57600080fd5b604051339084156108fc029085906000818181858888f1935050505015801561130c573d6000803e3d6000fd5b50336000908152600860205260408120805485929061132c908490611877565b909155505050505050565b6000611341610759565b60035460049081556040516370a0823160e01b815230918101919091526001600160a01b038416906370a0823190602401602060405180830381865afa15801561138f573d6000803e3d6000fd5b505050506040513d601f19601f820116820180604052508101906113b3919061188a565b6001600160a01b0383166000908152600660205260409020546003546113d991906118a3565b6113e391906118d8565b9392505050565b6109308282604051602401611400929190611942565b60408051601f198184030181529190526020810180516001600160e01b03166309710a9d60e41b17905261155c565b6000677fffffffffffffff82111561144657600080fd5b5060401b90565b6000600f83810b9083900b0260401d60016001607f1b0319811280159061147b575060016001607f1b038113155b6113e357600080fd5b60008160000361149357600080fd5b600061149f848461157d565b905060016001607f1b036001600160801b03821611156113e357600080fd5b6000600f83810b9083900b0160016001607f1b0319811280159061147b575060016001607f1b038113156113e357600080fd5b60008160000361150357506000610c6e565b600083600f0b121561151457600080fd5b600f83900b6001600160801b038316810260401c90608084901c026001600160c01b0381111561154357600080fd5b60401b811981111561155457600080fd5b019392505050565b80516a636f6e736f6c652e6c6f67602083016000808483855afa5050505050565b60008160000361158c57600080fd5b60006001600160c01b0384116115b75782604085901b816115af576115af6118c2565b0490506116ce565b60c084811c64010000000081106115d0576020918201911c5b6201000081106115e2576010918201911c5b61010081106115f3576008918201911c5b60108110611603576004918201911c5b60048110611613576002918201911c5b60028110611622576001820191505b60bf820360018603901c6001018260ff0387901b81611643576116436118c2565b0492506001600160801b0383111561165a57600080fd5b608085901c83026001600160801b038616840260c088901c604089901b82811015611686576001820391505b608084901b9290038281101561169d576001820391505b829003608084901c82146116b3576116b3611997565b8881816116c2576116c26118c2565b04870196505050505050505b6001600160801b038111156113e357600080fd5b6000602082840312156116f457600080fd5b5035919050565b80356001600160a01b038116811461171257600080fd5b919050565b6000806040838503121561172a57600080fd5b611733836116fb565b946020939093013593505050565b60008060006060848603121561175657600080fd5b61175f846116fb565b925061176d602085016116fb565b9150604084013590509250925092565b60006020828403121561178f57600080fd5b6113e3826116fb565b600080604083850312156117ab57600080fd5b823580600f0b811461173357600080fd5b6000806000606084860312156117d157600080fd5b505081359360208301359350604090920135919050565b600080604083850312156117fb57600080fd5b611804836116fb565b9150611812602084016116fb565b90509250929050565b6001600160a01b039384168152919092166020820152604081019190915260600190565b60006020828403121561185157600080fd5b815180151581146113e357600080fd5b634e487b7160e01b600052601160045260246000fd5b81810381811115610c6e57610c6e611861565b60006020828403121561189c57600080fd5b5051919050565b60008160001904831182151516156118bd576118bd611861565b500290565b634e487b7160e01b600052601260045260246000fd5b6000826118e7576118e76118c2565b500490565b634e487b7160e01b600052603260045260246000fd5b80820180821115610c6e57610c6e611861565b60006001820161192757611927611861565b5060010190565b60008261193d5761193d6118c2565b500690565b604081526000835180604084015260005b818110156119705760208187018101516060868401015201611953565b506000606082850101526060601f19601f8301168401019150508260208301529392505050565b634e487b7160e01b600052600160045260246000fdfea2646970667358221220d94cdab8a25dd532f35e9db9c627abada444235d24b285df4d8d1e8f55e756ff64736f6c63430008100033",
    "linkReferences": {}
  },
  "methodIdentifiers": {
    "accrueInterest(address)": "9198e515",
    "borrow(address,uint256)": "4b8a3529",
    "borrower(address)": "bdf78ba6",
    "borrower_index(uint256)": "126f8485",
    "calc_fee()": "435c0298",
    "compound(uint256,uint256,uint256)": "f3c85eba",
    "deposit(address,uint256)": "47e7ef24",
    "depositor(address)": "387e971c",
    "depositor_index(uint256)": "63a27ddf",
    "getAccruedSupplyAmount(address)": "53415e44",
    "getAllAccruedSupplyAmount(address,address)": "ff8d20c3",
    "initializeLendingProtocol(address)": "8f1e9779",
    "liquidate(address,address,uint256)": "26c01303",
    "oracle()": "7dc0d1d0",
    "pow(int128,uint256)": "ae581bc2",
    "repay(address,uint256)": "22867d78",
    "total_supply(address)": "3f32e169",
    "updateProfit(address)": "80f315c4",
    "withdraw(address,uint256)": "f3fef3a3"
  },
  "id": 15
}